{
  "contractName": "EthLog",
  "abi": [
    {
      "inputs": [
        {
          "name": "_from",
          "type": "address",
          "indexed": true
        },
        {
          "indexed": false,
          "name": "body",
          "type": "string"
        }
      ],
      "payable": false,
      "stateMutability": "nonpayable",
      "type": "event",
      "signature": "0x7c4df89cbd8bc26a8115555996f15b6c6cb4d85dfaf2d5e071458d276719d6f4",
      "constant": false,
      "name": "Speech",
      "outputs": [],
      "anonymous": false
    },
    {
      "constant": false,
      "inputs": [
        {
          "name": "name",
          "type": "bytes32"
        }
      ],
      "name": "introduce",
      "outputs": [
        {
          "name": "",
          "type": "uint256"
        }
      ],
      "payable": false,
      "stateMutability": "nonpayable",
      "type": "function",
      "signature": "0x7195d802"
    },
    {
      "constant": true,
      "inputs": [
        {
          "name": "addr",
          "type": "address"
        }
      ],
      "name": "getNickname",
      "outputs": [
        {
          "name": "nick",
          "type": "bytes32"
        }
      ],
      "payable": false,
      "stateMutability": "view",
      "type": "function",
      "signature": "0xadaccd74"
    },
    {
      "constant": false,
      "inputs": [
        {
          "name": "x",
          "type": "string"
        }
      ],
      "name": "say",
      "outputs": [],
      "payable": false,
      "stateMutability": "nonpayable",
      "type": "function",
      "signature": "0xd5c61301"
    }
  ],
  "bytecode": "0x608060405234801561001057600080fd5b50610334806100206000396000f3fe608060405260043610610057576000357c0100000000000000000000000000000000000000000000000000000000900463ffffffff1680637195d8021461005c578063adaccd7414610097578063d5c61301146100fc575b600080fd5b34801561006857600080fd5b506100956004803603602081101561007f57600080fd5b81019080803590602001909291905050506101c4565b005b3480156100a357600080fd5b506100e6600480360360208110156100ba57600080fd5b81019080803573ffffffffffffffffffffffffffffffffffffffff16906020019092919050505061020a565b6040518082815260200191505060405180910390f35b34801561010857600080fd5b506101c26004803603602081101561011f57600080fd5b810190808035906020019064010000000081111561013c57600080fd5b82018360208201111561014e57600080fd5b8035906020019184600183028401116401000000008311171561017057600080fd5b91908080601f016020809104026020016040519081016040528093929190818152602001838380828437600081840152601f19601f820116905080830192505050505050509192919290505050610252565b005b806000803373ffffffffffffffffffffffffffffffffffffffff1673ffffffffffffffffffffffffffffffffffffffff1681526020019081526020016000208190555050565b60008060008373ffffffffffffffffffffffffffffffffffffffff1673ffffffffffffffffffffffffffffffffffffffff168152602001908152602001600020549050919050565b3373ffffffffffffffffffffffffffffffffffffffff167f7c4df89cbd8bc26a8115555996f15b6c6cb4d85dfaf2d5e071458d276719d6f4826040518080602001828103825283818151815260200191508051906020019080838360005b838110156102cb5780820151818401526020810190506102b0565b50505050905090810190601f1680156102f85780820380516001836020036101000a031916815260200191505b509250505060405180910390a25056fea165627a7a723058202020e2e371a874a6dea0c00e80d4e690c37fab3d99914483e7fb34b55cc7b5c10029",
  "source": "pragma solidity ^0.5.0;\n\n\ncontract EthLog {\n   mapping (address => bytes32) nickname;\n   event Speech(address indexed _from, string body);\n  \n   function introduce(bytes32 name) public {\n      nickname[msg.sender] = name;\n   }\n  \n   function getNickname(address addr) view public returns (bytes32 nick) {\n      return nickname[addr];\n   }\n  \n   function say(string memory x) public {\n      emit Speech(msg.sender, x);\n   }\n}\n",
  "sourcePath": "/home/tomita/works/me/ethlog/contracts/EthLog.sol",
  "compiler": {
    "name": "solc",
    "version": "0.5.0+commit.1d4f565a.Emscripten.clang"
  },
  "schemaVersion": "3.0.6",
  "updatedAt": "2019-04-24T18:51:48.587Z",
  "devdoc": {
    "methods": {}
  },
  "userdoc": {
    "methods": {}
  }
}